:100000000EC026C025C024C023C022C021C020C0ED
:100010001FC01EC01DC01CC035C01AC019C011248D
:100020001FBECFEDCDBF10E0A0E6B0E0EEE9F3E0FB
:1000300002C005900D92AC3AB107D9F720E0ACEAC6
:10004000B0E001C01D92AE3AB207E1F74AD1A5C1B6
:10005000D7CFF8949C010A9714F029E030E0822F62
:100060008770283031050CF08062806194B7977FEB
:1000700094BF91B5986191BD81BD81B5806481BD0A
:10008000789408951F920F920FB60F9211248F93B8
:1000900081E0809360008F910F900FBE0F901F90B2
:1000A000189581110CC0B89A6115710519F4C098A2
:1000B000B89808958AB580688ABD69BD0895813071
:1000C00059F4B99A6115710519F4C198B998089550
:1000D0008AB580628ABD68BD08951F93CF93DF9370
:1000E000182FCFE9D0E069917991812FDADF8BE485
:1000F0009DE10197F1F700C0000090E0CB3AD907ED
:1001000091F76FEF70E0812FCCDF87EA91E60197DE
:10011000F1F700C00000CDE7D0E069917991812F1F
:10012000C0DF8BE49DE10197F1F700C0000090E093
:10013000CF39D90791F7DF91CF911F910895AF92F1
:10014000BF92CF92DF92FF920F931F93CF93DF93D3
:10015000F82E02E010E08BEAC82E80E0D82E9FE94E
:10016000A92E90E0B92ECFE9D0E0699179918F2D39
:1001700098DF87E99AE30197F1F700C00000CC16F9
:10018000DD0699F7CDE7D0E0699179918F2D89DF70
:1001900083EC99E00197F1F700C00000AC16BD06B2
:1001A00099F701501109F9F6DF91CF911F910F9145
:1001B000FF90DF90CF90BF90AF900895AF92BF9225
:1001C000CF92DF92FF920F931F93CF93DF93F82E7E
:1001D0002FE9C22E20E0D22E0BEA10E0E601699151
:1001E00079918F2D5EDF8BE49DE10197F1F700C0DF
:1001F00000000C171D0799F7C3E6D0E00DE710E0EB
:100200005E01F501619171915F018F2D4ADF8DE2F1
:1002100092E20197F1F700C000000A151B0589F76B
:10022000F601619171916F0177FF02C06F5F7F4F9F
:10023000759567958F2D35DF87E893E10197F1F785
:1002400000C000009BEAC91690E0D90649F7699101
:10025000799177FF02C06F5F7F4F759567958F2DFE
:1002600020DFE9E6F8E13197F1F700C000000C1754
:100270001D0769F7DF91CF911F910F91FF90DF90DC
:10028000CF90BF90AF9008958130910591F01CF40C
:10029000892BE1F023C08230910599F00397F1F4A6
:1002A000B99A81E090E019DF60E070E081E0F9DE6A
:1002B0000DC0B99A81E090E042DF60E070E081E03B
:1002C0000CC0B89A80E090E079DF04C0B89A80E072
:1002D00090E003DF60E070E080E0E3DEB898B9987A
:1002E0000895B89AB99ABA98BB98BC98C098C19822
:1002F000C29AC49A8AB581608ABD8AB582608ABD75
:1003000083B7816083BF83B7826083BF89E090E059
:10031000A0DEC8E0D0E009E010E080916000882312
:10032000E1F310926000B39B05C01093620000934C
:1003300061001AC0D0936200C09361008091AC004C
:100340009091AD00A1DF8091AC009091AD0001963D
:10035000843091052CF49093AD008093AC0004C0E0
:100360001092AD001092AC008091610090916200FB
:1003700070DE379885B7877E806185BF85B78062DC
:1003800085BF85B7806285BF889585B78F7D85BF1E
:0E03900085B78F7D85BF379AC0CFF894FFCF19
:10039E00010900FF00FF00FF0086006200530047C6
:1003AE000033002C002500200017001400FF00D998
:1003BE0000B9009E00860073006200530047003CA7
:1003CE000033002C00250020001B00170014000035
:0C03DE00007900B800DA00EB00F5000028
:00000001FF
